:100000000C942A000C943F000C943F000C943F0089
:100010000C943F000C943F000C943F000C943F0064
:100020000C943F000C943F000C943F000C943F0054
:100030000C943F000C943F000C943F000C943F0044
:100040000C943F000C943F000C943F000C943F0034
:100050000C943F0011241FBECFE5D8E0DEBFCDBF1A
:1000600010E0A0E6B0E0E8EEF1E002C005900D92ED
:10007000AA38B107D9F70E94DA000C94F2000C9468
:100080000000C09A5D9BFECF809187008CB983ED04
:1000900090E30197F1F700C000005D9BFECF8091D7
:1000A00088008CB983ED90E30197F1F700C0000060
:1000B0005D9BFECF8DE08CB983ED90E30197F1F766
:1000C00000C00000EDE7F0E026E830E05D9BFECFE9
:1000D00081918CB983ED90E30197F1F700C00000A6
:1000E000E217F30799F75D9BFECF8DE08CB983EDA6
:1000F00090E30197F1F700C00000E4E7F0E02CE79F
:1001000030E05D9BFECF81918CB983ED90E3019748
:10011000F1F700C000002E173F0799F75D9BFECF57
:1001200082E28CB983ED90E30197F1F700C0000003
:10013000E0E6F0E02EE630E05D9BFECF81918CB9E9
:1001400083ED90E30197F1F700C000002E173F0701
:1001500099F75D9BFECF82E28CB983ED90E3019726
:10016000F1F700C000005D9BFECF8DE08CB983ED00
:1001700090E30197F1F700C00000EFE6F0E023E71D
:1001800030E05D9BFECF81918CB983ED90E30197C8
:10019000F1F700C000002E173F0799F75D9BFECFD7
:1001A0008AE18CB983ED90E30197F1F700C000007C
:1001B00018BA08951BB81AB810BC10BC8CE089B9E5
:1001C000599A8AB188618AB980B5866880BD8AB338
:1001D0008C6F8ABB87B38FEF87BBC89BFECF0E9413
:0801E0004100FBCFF894FFCFB2
:1001E8002B383830313734383831323034380046EB
:1001F8006972650041542B434D47533D0041542BD0
:0A020800434D47463D3100415400CC
:00000001FF
