:100000000C942A000C9447000C9447000C94470071
:100010000C9447000C9447000C9447000C94470044
:100020000C9447000C9447000C9447000C94470034
:100030000C9447000C9447000C9447000C94470024
:100040000C9447000C9447000C9447000C94470014
:100050000C94470011241FBECFE5D8E0DEBFCDBF12
:1000600010E0A0E6B0E0E4E8FBE002C005900D92ED
:10007000A638B107D9F720E0A6E8B0E001C01D928C
:10008000A039B207E1F70E9408050C94C0050C9452
:100090000000672B09F09FC0009711F4D8980895CD
:1000A0008130910511F4D99808958230910511F4A9
:1000B000DA9808958330910511F4DB98089584301F
:1000C000910511F4DC9808958530910511F4DD98BF
:1000D00008958630910511F4DE98089587309105D2
:1000E00011F4DF9808958A30910511F4C0980895AD
:1000F0008B30910511F4C19808958C30910511F45D
:10010000C29808958D30910511F4C39808958E30EA
:10011000910511F4C49808958F30910511F4C59894
:1001200008958031910511F4C698089581319105A3
:1001300011F4C79808958431910511F4A898089591
:100140008531910511F4A99808958631910511F42E
:10015000AA9808958731910511F4AB9808958831D4
:10016000910511F4AC9808958931910511F4AD9879
:1001700008958A31910511F4AE9808958B31910557
:1001800011F4AF9808958E31910511F49098089567
:100190008F31910511F4919808958032910511F4F1
:1001A000929808958132910511F4939808958232BE
:1001B000910511F4949808958332910511F495985E
:1001C00008958432910511F496980895859709F061
:1001D0009FC097980895009711F4D89A0895813098
:1001E000910511F4D99A08958230910511F4DA9AA3
:1001F00008958330910511F4DB9A089584309105B8
:1002000011F4DC9A08958530910511F4DD9A089572
:100210008630910511F4DE9A08958730910511F426
:10022000DF9A08958A30910511F4C09A08958B30B1
:10023000910511F4C19A08958C30910511F4C29A78
:1002400008958D30910511F4C39A08958E3091056B
:1002500011F4C49A08958F30910511F4C59A089548
:100260008031910511F4C69A08958131910511F4F8
:10027000C79A08958431910511F4A89A089585319B
:10028000910511F4A99A08958631910511F4AA9A5D
:1002900008958731910511F4AB9A0895883191053D
:1002A00011F4AC9A08958931910511F4AD9A08952D
:1002B0008A31910511F4AE9A08958B31910511F4AC
:1002C000AF9A08958E31910511F4909A08958F3167
:1002D000910511F4919A08958032910511F4929A42
:1002E00008958132910511F4939A0895823291050F
:1002F00011F4949A08958332910511F4959A089512
:100300008432910511F4969A0895859709F4979A85
:100310000895CF93C82F80FF07C061E070E084E0AC
:1003200090E00E94490006C060E070E084E090E048
:100330000E944900C1FF07C061E070E085E090E0E5
:100340000E94490006C060E070E085E090E00E94F5
:100350004900C2FF07C061E070E086E090E00E94C3
:10036000490006C060E070E086E090E00E9449002D
:10037000C3FF07C061E070E087E090E00E944900A1
:1003800006C060E070E087E090E00E944900CF91F5
:100390000895CF93C82F60E070E08AE190E00E945A
:1003A00049008C2F0E94890161E070E08BE190E0B0
:1003B0000E94490089EF90E00197F1F700C000002A
:1003C00060E070E08BE190E00E94490089EF90E0EE
:1003D0000197F1F700C00000CF91089580E00E94DE
:1003E000C90181E00E94C9010895CF93C62F8130D1
:1003F00059F480E8860F82958F700E94C9018C2F76
:100400008F700E94C9010CC0823051F480EC860FBD
:1004100082958F700E94C9018C2F8F700E94C90134
:10042000CF91089580E00E94890187E893E10197C8
:10043000F1F700C0000083E00E94C90181EE94E062
:100440000197F1F700C0000083E00E94C9018DEB25
:100450009AE00197F1F700C0000083E00E94C90113
:1004600082E00E94C90182E00E94C90188E00E94E6
:10047000C90180E00E94C9018CE00E94C90180E0AE
:100480000E94C90186E00E94C9010895CF93C82F38
:1004900061E070E08AE190E00E9449008C2F829533
:1004A0008F700E94890161E070E08BE190E00E9412
:1004B000490089EF90E00197F1F700C0000060E08B
:1004C00070E08BE190E00E94490089EF90E0019795
:1004D000F1F700C000008C2F8F700E94890161E04D
:1004E00070E08BE190E00E94490089EF90E0019775
:1004F000F1F700C0000060E070E08BE190E00E9446
:10050000490089EF90E00197F1F700C00000CF911A
:100510000895CF93DF93EC018881882331F02196F1
:100520000E94460289918111FBCFDF91CF910895FE
:100530008AB38D6F8ABB87B38FEF87BB94B384BBBD
:1005400091B381BB8FB51FBC8EB51EBC8FB58268C1
:100550008FBD8EB589618EBD8FE19EE497BD86BD4E
:100560008CED95E09BBD8ABD8FEF9FEF90938B0044
:1005700080938A00109289001092880081E487B9E4
:1005800081E886B90E9412021092870010928600BC
:1005900015BA0895369A3699FECF84B125B190E008
:1005A000922B90938F0080938E000895CF93DF93CA
:1005B00000D000D01F92CDB7DEB70E94EE0161E0FF
:1005C00081E00E94F50180E690E00E94890261E0EE
:1005D00082E00E94F5011D8280918E0090918F0033
:1005E0002AE030E0B9010E949805805D8C838091FB
:1005F0008E0090918F00E4E6F0E0BF010E94980524
:10060000B9010E949805605D6B8380918E00909186
:100610008F0028EE33E0B9010E949805BF010E94C7
:100620009805605D6A8380918E0090918F0060E1F3
:1006300077E20E949805B9010E949805605D698380
:10064000CE0101960E9489020F900F900F900F909B
:100650000F90DF91CF9108950F931F93CF93DF9366
:10066000CDB7DEB727970FB6F894DEBF0FBECDBF6C
:100670000E94EE0161E081E00E94F50187E690E0D2
:100680000E9489021A8280918600909187000AE078
:1006900010E0B8010E949805805D89836CE081E0DC
:1006A0000E94F501CE0101960E94890261E082E07C
:1006B0000E94F50180E690E00E94890268E082E0F5
:1006C0000E94F5011F8280918E0090918F00B801E9
:1006D0000E949805805D8E8380918E0090918F009E
:1006E000E4E6F0E0BF010E949805B8010E94980579
:1006F000605D6D8380918E0090918F0028EE33E0D5
:10070000B9010E949805BF010E949805605D6C8345
:1007100080918E0090918F0060E177E20E949805B1
:10072000B9010E949805605D6B83CE0103960E941B
:1007300089028DE399E40197F1F700C00000279644
:100740000FB6F894DEBF0FBECDBFDF91CF911F91E2
:100750000F9108950E94EE0161E081E00E94F50191
:100760008FE690E00E94890261E082E00E94F5013C
:1007700087E790E00E9489028DE399E40197F1F701
:1007800000C000000895A99A80918A0090918B0082
:10079000019709F058C080918800909189000497D2
:1007A00020918800309189002C5F3F4F821793077A
:1007B00054F020918800309189002450310982172B
:1007C00093070CF59DC024E1289FA001299F500D9F
:1007D00011244C575C4F5BBD4ABD2FE038E962E005
:1007E000215030406040E1F700C0000001962091A8
:1007F0008800309189004C5E5F4F2C5F3F4F82171D
:1008000093074CF3D6CF24E1289FA001299F500DD8
:1008100011244C575C4F5BBD4ABD2FE038E962E0C4
:10082000215030406040E1F700C000000197209166
:1008300088003091890044515109245031098217B0
:1008400093074CF75DC080918A0090918B000196D0
:1008500009F056C020918800309189002450310958
:1008600080918800909189000496281739074CF0F0
:1008700080918800909189000497281739070CF51A
:100880003FC06CEE6203A001639F500D11244C5CCD
:10089000574F5BBD4ABD6FE088E992E061508040F0
:1008A0009040E1F700C000002F5F3F4F809188002B
:1008B00090918900445151090496281739074CF347
:1008C000D7CF6CEE6203A001639F500D11244C5CE6
:1008D000574F5BBD4ABD6FE088E992E061508040B0
:1008E0009040E1F700C0000021503109809188005C
:1008F000909189004C5E5F4F0497281739074CF799
:10090000A99808950F931F93CF93DF93C091880008
:10091000D0918900CC33D10544F584E18C9F8001CE
:100920008D9F100D11240C571C4F1BBD0ABD0E943A
:10093000CA020E94D60280918E0090918F00843668
:1009400091053CF4D0938900C093880083E090E047
:1009500018C08DE399E40197F1F700C000002196DB
:100960000C5E1F4FCC33D10501F710928900109215
:1009700088008FEF9FEF90938B0080938A0081E037
:1009800090E0DF91CF911F910F9108950F931F93E6
:10099000CF93DF9300918800109189000C331105EB
:1009A00044F52CEE2003E001219FD00D1124CC5CF6
:1009B000D74FDBBDCABD0E94CA020E94D6028091F9
:1009C0008E0090918F00843691053CF4109389003D
:1009D0000093880083E090E016C08DE399E40197CE
:1009E000F1F700C000000F5F1F4F64970C33110533
:1009F00001F7109289001092880081E090E09093B6
:100A00008B0080938A00DF91CF911F910F91089501
:100A100010928D0010928C0004E010E0C1E0D0E054
:100A200080918C0090918D008130910591F01CF4A3
:100A3000892B41F0F5CF8330910529F1049709F412
:100A40005DC0EECF0E949802D0938D00C0938C00C1
:100A5000E7CF80918A0090918B00019639F40E9433
:100A6000C60490938D0080938C00DACF80918A0029
:100A700090918B000197A1F60E94820490938D00C3
:100A800080938C00CDCF0E94CA020E942C038091DB
:100A90008E0090918F0085369105D4F0809186006C
:100AA000909187008E3F9F4F54F0809186009091E7
:100AB00087000197909387008093860012C0109260
:100AC000870010928600D0938D00C0938C0009C0DF
:100AD0008091860090918700019690938700809383
:100AE0008600809186009091870004970CF498CF3F
:100AF000D89A10938D0000938C0092CF0E94AA0385
:100B00000E94C3030E94CA020E94D60280918E00F6
:100B100090918F00853691050CF482CFD898109271
:100B2000870010928600D0938D00C0938C0078CF00
:100B300097FB072E16F4009407D077FD09D00E948A
:100B4000AC0507FC05D03EF4909581959F4F089524
:100B5000709561957F4F0895AA1BBB1B51E107C09B
:100B6000AA1FBB1FA617B70710F0A61BB70B881F3D
:100B7000991F5A95A9F780959095BC01CD010895CC
:040B8000F894FFCF17
:100B840056616C75653A00466972652121210050F1
:100B9400756D70204F4E005468726F77696E6720D0
:060BA40057617465720048
:00000001FF
